:100000000C94B7120C94E8120C94E8120C94E812B9
:100010000C94E8120C94E8120C94E8120C94E81278
:100020000C94E8120C94E8120C94E8120C94E81268
:100030000C94E8120C94E8120C94E8120C94E81258
:100040000C94E8120C94329A0C94E8120C94E81276
:100050000C94E8120C94E8120C9459520C9434A1AC
:100060000C94E8120C942D320C9423320C94E81268
:100070000C94E8120C94E8120C94E8120C94E81218
:100080000C94E8120C94E8120C94E8120C94E81208
:100090000C94E8120C94E8120C94E8120C94E812F8
:1000A0000C94E8120C94E8120C94E8120C94E812E8
:1000B0000C94E8120C94E8120C94E8120C94E812D8
:1000C0000C94E8120C94E8120C94E8120C94E812C8
:1000D0000C94E8120C94E8120C94E8120C94E812B8
:1000E0000C94E8126032703281328C329432AB322E
:1000F0009832AB329C32A032AB32A632E43C063DA1
:10010000263D4B3D703D273F953DB83DDB3D003ED4
:10011000253E4A3E6F3E943E273FB93EDE3E033FBA
:10012000964099409D40A040A340CD40A740AA40A2
:10013000AE40B140B440B840BB40BE40CD40C240EC
:10014000C540C8405E9E619E509E549E5A9E989E99
:10015000659E699E6F9E739E779E7D9E819E859E05
:10016000989E8B9E8F9E939E2FA034A039A043A073
:100170004DA0C6A057A05FA067A071A07BA085A0DE
:1001800094A09EA0C6A0A8A0B2A0BCA0084AD73B3D
:100190003BCE016E84BCBFFDC12F3D6C74319ABD56
:1001A00056833DDA3D00C77F11BED9E4BB4C3E917A
:1001B0006BAAAABE000000803F05A84CCDB2D44E69
:1001C000B93836A9020C50B9918688083CA6AAAA6B
:1001D0002ABE000000803F000C94739E0C9498325D
:1001E0000C94253E0C94703D0C94DB3D0C944DA07A
:1001F0000C9457A00C94A3400C9485A00C946F9E73
:100200000C94AE400C949EA00C949C320C94263D11
:100210000C94989E0C945FA00C9496400C94A7406C
:100220000C94BB400C9494320C9460320C94939ECA
:100230000C9467A00C94B93E0C94E43C0C945E9E24
:100240000C9416A90C94AA400C947BA00C94A8A022
:100250000C94AB320C94DE3E0C9481320C94994099
:100260000C9471A00C94BCA00C944B3D0C94B2A0C7
:100270000C947D9E0C94063D0C94B83D0C944A3E23
:100280000C945A9E0C94B1400C9470320C94033F21
:100290000C949D400C9439A00C94619E0C94A63251
:1002A0000C94C5400C94A0400C94C2400C94819EC8
:1002B0000C94659E0C94699E0C94B4400C94FBAA1B
:1002C0000C94003E0C94A0320C9494A00C94C84062
:1002D0000C948C320C946F3E0C942FA00C94B8406C
:1002E0000C94C6A00C9443A00C94943E0C948B9E4A
:1002F0000C948F9E0C94273F0C94953D0C94859EF6
:100300000C94CD400C94549E0C9434A00C94BE409C
:100310000C94779E0C94509E4E414E494E49545930
:10032000494E46CDCCCC3D0AD7233C17B7D13877C0
:10033000CC2B329595E6241FB14F0A0000204100D6
:1003400000C84200401C4620BCBE4CCA1B0E5AAE20
:10035000C59D74434F4D4D554E49434154494F4EF1
:100360000044525952554E004552524F5253004983
:100370004E464F004543484F0047322F47332062D7
:10038000616420706172616D65746572730A004505
:100390006E642066696C65206C6973740A0042653E
:1003A00067696E2066696C65206C6973740A004E1B
:1003B0006F206D656469610A00286E6F2066696C44
:1003C00065290043757272656E742066696C653AC2
:1003D00020005344207072696E74696E67206279E0
:1003E000746520004E6F74205344207072696E74DF
:1003F000696E670A0044656C6574696F6E2066619A
:10040000696C65642C2046696C653A200046696C0D
:10041000652064656C657465643A002569792025FA
:100420006964202569682025696D2025697300505D
:1004300072696E742074696D653A20006F6666009B
:1004400044454255473A004D3131332053002F2F58
:100450002000416363656C65726174696F6E3A2058
:1004600050003F4A206F7574206F662072616E677E
:10047000652028302E303120746F20302E33290A29
:100480000020204D61783A200020204D696E3A20EE
:1004900000536F667420656E6473746F70733A20D6
:1004A0000046523A0020466C6F773A200020643AAA
:1004B0000020693A0020703A00496E76616C6964E8
:1004C0002065787472756465720A0064697300430C
:1004D000290A0061626C656420286D696E2074656C
:1004E0006D702000436F6C6420657874727564656C
:1004F00073206172652000546F6F20666172206600
:10050000726F6D207265666572656E636520706FCF
:10051000696E740A00454550524F4D204F4B0A00FA
:100520004D383400446F6E65207072696E74696E68
:10053000672066696C650A004D3737004D3331001E
:1005400074036F036803610353034572726F722073
:1005500077726974696E6720746F20454550524FF9
:100560004D210A005072696E7465722073746F7049
:100570007065642064756520746F206572726F7297
:10058000732E2046697820746865206572726F72D8
:1005900020616E6420757365204D39393920746F80
:1005A00020726573746172742E202854656D7065B5
:1005B0007261747572652069732072657365742E3B
:1005C00020536574206974206166746572207265B9
:1005D0007374617274696E67290A004E6F204368F4
:1005E00065636B73756D2077697468206C696E65DF
:1005F000206E756D6265722C204C617374204C699D
:100600006E653A2000636865636B73756D206D6974
:10061000736D617463682C204C617374204C696E37
:10062000653A20004C696E65204E756D62657220DA
:100630006973206E6F74204C617374204C696E6511
:10064000204E756D6265722B312C204C61737420C5
:100650004C696E653A20004D3131300053442072B0
:10066000656164206572726F720A002121204B4916
:100670004C4C2063617573656420627920746F6FE0
:10068000206D75636820696E616374697665207496
:10069000696D65202D2063757272656E7420636FBD
:1006A0006D6D616E643A2000627573793A207061F5
:1006B0007573656420666F7220696E7075740A00C8
:1006C000627573793A2070617573656420666F7224
:1006D00020757365720A00627573793A2070726FC3
:1006E00063657373696E670A005072696E74657230
:1006F0002068616C7465642E206B696C6C282920FD
:1007000063616C6C6564210A006563686F3A00453B
:1007100072726F723A00363726033C3D380E2E3027
:100720003E1224221E1A1C180A0743090708440017
:100730000124F4D43050C38E20C2A24017828B70A3
:1007400011127A910D816CD90AA861E108C7586627
:1007500007615143061E4B5D05C145A7041A4111AF
:1007600004093D9803713931034036DB026533914A
:1007700002D4305402802E1D02632CEE01752AC56E
:1007800001B028A001102781018F2564012B244B83
:1007900001E0223401AC211F018D200D01801FFCDE
:1007A00000841EED00971DDF00B81CD200E61BC6BA
:1007B00000201BBC00641AB200B219A8000A19A0DC
:1007C000006A189900D117910040178B00B5168464
:1007D0000031167E00B31579003A157300C7146F07
:1007E0000058146A00EE1366008813630025135E38
:1007F00000C7125B006C12570015125400C1115152
:100800000070114F0021114B00D61049008D104788
:10081000004610440002104200C00F4000800F3E0E
:1008200000420F3C00060F3B00CB0E3800930E3702
:10083000005C0E3500270E3400F30D3200C10D317F
:1008400000900D3000600D2E00320D2D00050D2C96
:1008500000D90C2B00AE0C2900850C29005C0C275C
:1008600000350C27000E0C2600E80B2400C40B24D6
:1008700000A00B23007D0B23005A0B2100390B2114
:1008800000180B2000F80A1F00D90A1E00BB0A1E20
:10089000009D0A1D00800A1D00630A1C00470A1BF8
:1008A000002C0A1B00110A1A00F7091A00DD0919A9
:1008B00000C4091900AB091900920917007B091837
:1008C00000630917004C09160036091600200916A6
:1008D000000A091500F5081500E0081400CC0814FA
:1008E00000B8081400A4081400900813007D081232
:1008F000006B081300580812004608120034081153
:1009000000230811001208110001081100F007105F
:1009100000E0071000D0071000C0071000B0070F5C
:1009200000A107100091070E0083070F0074070F46
:100930000065070E0057070E0049070E003B070D24
:10094000002E070E0020070D0013070D0006070DEF
:1009500000F9060C00ED060D00E0060C00D4060CB4
:1009600000C8060C00BC060C00B0060C00A4060B68
:100970000099060C008D060B0082060B0077060B13
:10098000006C060B0061060A0057060B004C060AB5
:100990000042060A0038060A002E060A0024060A4B
:1009A000001A060A001006090007060A00FD0509DC
:1009B00000F4050900EB050900E2050900D9050965
:1009C00000D0050900C7050900BE050900B50508E6
:1009D00000AD050800A50509009C05080094050860
:1009E000008C050800840508007C050800740508D3
:1009F000006C050700650508005D05070056050841
:100A0000004E0507004705070040050800380507A8
:100A100000310507002A050700230507001C05060D
:100A200000160507000F0507000805060002050768
:100A300000FB040600F5040700EE040600E80406C7
:100A400000E2040700DB040600D5040600CF04061C
:100A500000C9040600C3040600BD040600B704066E
:100A600000B1040500AC040600A6040600A00405BD
:100A7000009B04060095040500900406008A040506
:100A80000085040500800406007A0405007504054D
:100A900000700405006B0405006604050061040590
:100AA000005C04050057040500520405004D0405D0
:100AB0000048040500430405003E0404003A040510
:100AC0000035040500300404002C0405002704044C
:100AD00000230405001E0404001A04040016040583
:100AE00000110404000D04040009040500040404BA
:100AF0000000040400FC030400F8030400F40304F1
:100B000000F0030400EC030400E8030400E4030421
:100B100000E0030400DC030400D8030400D4030451
:100B200000D0030400CC030400C8030300C5030382
:100B30000024F404D9201BC40C5C0E9804C4095F83
:100B40000265077101F405F900FB04B3004804874E
:100B500000C10369005803550003034500BE023A73
:100B6000008402310053022A0029022500040220D9
:100B700000E4011C00C8011900AF0117009801141E
:100B80000084011300710110006101100051010E79
:100B90000043010D0036010B002B010B0020010B5F
:100BA00000150109000C01090003010800FB000801
:100BB00000F3000800EB000700E4000600DE00067A
:100BC00000D8000600D2000600CC000500C70005D2
:100BD00000C2000500BD000400B9000400B5000417
:100BE00000B1000400AD000400A9000400A500034A
:100BF00000A20003009F0004009B00030098000374
:100C0000009500020093000300900003008D000295
:100C1000008B0003008800020086000200840003AD
:100C200000810002007F0002007D0002007B0002C4
:100C300000790002007700010076000200740002D3
:100C40000072000100710002006F0002006D0001DF
:100C5000006C0002006A00010069000200670001E8
:100C600000660001006500010064000200620001EE
:100C70000061000100600001005F0002005D0001F2
:100C8000005C0001005B0001005A000100590001F6
:100C900000580001005700010056000100550001F6
:100CA00000540001005300000053000100520001F5
:100CB0000051000100500001004F0001004E0000F3
:100CC000004E0001004D0001004C0001004B0000EF
:100CD000004B0001004A00010049000100480000EB
:100CE00000480001004700010046000000460001E6
:100CF00000450000004500010044000100430000E1
:100D000000430001004200000042000100410000D9
:100D10000041000100400001003F0000003F0001D1
:100D2000003E0000003E0001003D0000003D0001CB
:100D3000003C0000003C0000003C0001003B0000C3
:100D4000003B0001003A0000003A000100390000B9
:100D500000390001003800000038000000380001B0
:100D600000370000003700010036000000360000A8
:100D7000003600010035000000350000003500019C
:100D80000034000000340000003400010033000093
:100D90000033000000330001003200000032000088
:100DA000003200010031000000310000003100017C
:100DB000003000000030000000300001002F000073
:100DC000002F0000002F0000002F0001002E000067
:100DD000002E0000002E0001002D0000002D00005C
:100DE000002D0000002D0001002C0000002C000050
:100DF000002C0000002C0001002B0000002B000044
:100E0000002B0000002B0001002A0000002A000037
:100E1000002A0000002A000100290000002900002B
:100E2000002900000029000000290001002800001E
:100E30000028000000280000002800000028000111
:100E40000027000000270000002700000027000006
:100E500000270001002600000026000000260000F8
:100E600000260000002600010025000000250000EB
:100E700000250000002500000025000000250001DD
:100E800000240000002400000024000000240000D2
:100E900000240001002300000023000000230000C4
:100EA00000230000002300000023000000230001B5
:100EB00000220000002200000022000000220000AA
:100EC000002200000022000100210000002100009B
:100ED000002100000021000000210000002100008E
:100EE0000021000100200000002000000020000080
:100EF0000020000000200000002000000020000072
:100F000000200001001F0000001F0000001F000063
:100F1000001F0000001F0000001F0000001F000154
:100F2000001E0000001E0000001E0000001E000049
:100F300000393000003325000087190000B00F0091
:100F400000DB080000BD040000740200003F010047
:100F5000005A325F535445505F50494E005A325F39
:100F6000454E41424C455F50494E005A325F44491C
:100F7000525F50494E005A5F53544F505F50494E94
:100F8000005A5F535445505F50494E005A5F4D49D7
:100F90004E5F50494E005A5F454E41424C455F50AE
:100FA000494E005A5F4449525F50494E00595F53C1
:100FB000544F505F50494E00595F535445505F5055
:100FC000494E00595F4D494E5F50494E00595F45AB
:100FD0004E41424C455F50494E00595F4449525F73
:100FE00050494E00585F53544F505F50494E00587F
:100FF0005F535445505F50494E00585F4D494E5F16
:1010000050494E00585F454E41424C455F50494E55
:1010100000585F4449525F50494E00534552564F65
:10102000335F50494E00534552564F325F50494E40
:1010300000534552564F315F50494E00534552566A
:101040004F305F50494E00534453530052414D506E
:10105000535F44395F50494E0052414D50535F44F5
:10106000385F50494E0052414D50535F4431305F1C
:1010700050494E004D4F534645545F445F50494ED2
:10108000004D4158363637355F53535F50494E0057
:101090004C45445F50494E004845415445525F42DB
:1010A00045445F50494E004845415445525F305FCA
:1010B00050494E0046414E315F50494E0045315F28
:1010C000535445505F50494E0045315F454E4142B3
:1010D0004C455F50494E0045315F4449525F50498D
:1010E0004E0045315F43535F50494E0045305F53DA
:1010F0005445505F50494E0045305F454E41424C8B
:10110000455F50494E0045305F4449525F50494E5B
:101110000045305F4155544F5F46414E5F50494E48
:1011200000455F4D5558325F50494E00455F4D5563
:1011300058315F50494E00455F4D5558305F50491A
:101140004E004156525F53535F50494E0041565234
:101150005F53434B5F50494E004156525F4D4F53D2
:10116000495F50494E004156525F4D49534F5F50C1
:10117000494E0054454D505F4245445F50494E0032
:1011800054454D505F315F50494E0054454D505FBE
:10119000305F50494E0046494C57494454485F50CF
:1011A000494E0054584430005258443000486F743F
:1011B000656E6420746F6F20636F6C640A00505713
:1011C0004D3A20202534640020202020434F4D003C
:1011D0002020206E6F6E2D7374616E6461726420C6
:1011E00050574D206D6F646500202020636F6D7037
:1011F00061726520696E7465727275707420656EB7
:1012000061626C6564002020206F766572666C6F89
:101210007720696E7465727275707420656E616294
:101220006C6564002020202054494D534B00423A05
:101230002000413A20002020202054434352002027
:1012400020202043533A20002020202057474D3AA9
:1012500020002020202054494D4552002069732051
:10126000616C736F207469656420746F20746869A1
:10127000732070696E0054494D45523143000A2075
:101280002E002020506F72743A2000202020416EE2
:10129000616C6F6720696E203D2025356C64003CD1
:1012A000756E757365642F756E6B6E6F776E3E002D
:1012B0004F7574707574203D2000496E70757420F0
:1012C000203D200070726F74656374656420002097
:1012D000284125326429202000253364200050490C
:1012E0004E3A200047004800000088008A008C0029
:1012F000B300B400000098009A009C00A800AA0067
:10130000AC0028012A012C01440045006E00800039
:1013100081006F00B000B10070009000910071007A
:10132000A000A1007200200121017300A81100019A
:10133000A311010196113B008B1143008011450060
:101340007311440066113201591133014D113401FA
:1013500042113501371128012C112A0121112C01CC
:101360001111070106111C01F8101801EC101A01E7
:10137000E2102C01D7102201C9101E01BD1024015A
:1013800019110901B4100701A7100A0198100801EA
:1013900090100D01811042016A1132017410070191
:1013A0005D11330166100A01591008014C10090142
:1013B00051113401471035013C100B013110060169
:1013C000261005011B100401891035011110370189
:1013D00004102601FA0F0301EF0F3601E40F030199
:1013E000DA0F3D01CD0F3801C30F0E01B80F3C01DC
:1013F000AD0F0E01A30F3001960F3E018C0F1201AD
:10140000810F2E01760F12016B0F22015D0F1E015D
:10141000510F24012062797465733B20637263204D
:101420000053657474696E67732053746F726564DA
:10143000202800454550524F4D2064617461736906
:101440007A65206572726F722E0A002073746F7253
:1014500065642073657474696E6773207265747255
:101460006965766564202800202863616C63756C6B
:101470006174656429210A0020213D200045455002
:10148000524F4D20435243206D69736D6174636800
:10149000202D202873746F726564292000496E64C2
:1014A00065783A200044494749504F5453204C6FC7
:1014B000616465640A0044494749504F5453204CC5
:1014C0006F6164696E670A00204D61726C696E3DE0
:1014D000563832290A00454550524F4D20766572E4
:1014E00073696F6E206D69736D6174636820284540
:1014F0004550524F4D3D0048656174696E67204606
:1015000061696C65640048656174696E6720666135
:10151000696C6564004D3131322053687574646FB5
:10152000776E00202D20496E76616C6964206578A5
:10153000747275646572206E756D62657220210A21
:1015400000544845524D414C2052554E4157415947
:1015500000546865726D616C2052756E61776179B7
:10156000004572723A204D415854454D50004D414E
:101570005854454D50207472696767657265640000
:101580004572723A204D494E54454D50004D494EDA
:1015900054454D5020747269676765726564000A2E
:1015A0000A0020205A5F4D494E3A002020595F4DD5
:1015B000494E3A002020585F4D494E3A00202F00F6
:1015C0002042403A0020403A006672657368006429
:1015D0006F696E67004E6F7720002020506C616E3F
:1015E0006E657242756666657242797465733A20FB
:1015F000002046726565204D656D6F72793A200056
:10160000436F6D70696C65643A20446563202034D3
:1016100020323032300A00204C61737420557064DF
:10162000617465643A20323032302D31302D3135DD
:10163000207C20417574686F723A2028447275636B
:101640006B6261722E6E6574290A00322E302E375D
:101650002E320A004D61726C696E0020536F667401
:10166000776172652052657365740A002057617452
:101670006368646F672052657365740A0020427264
:101680006F776E206F75742052657365740A002041
:1016900045787465726E616C2052657365740A00DA
:1016A000506F77657255700A004D3234004D3233F9
:1016B000202573006175746F25632E6700473238EB
:1016C0005859004D31303031006572726F72207799
:1016D000726974696E6720746F2066696C650A00B0
:1016E000446F6E6520736176696E672066696C650C
:1016F0002E0A004D323900656E6473746F7073206A
:101700006869743A200070012C0190012701B00132
:101710002201C0011D01F001180110021301300265
:101720000E016002090190020401C002FF000003E3
:10173000FA004003F5008003F000D003EB00200422
:10174000E6007004E100E004DC004005D700C005BD
:10175000D2004006CD00D006C8008007C300300884
:10176000BE00F008B900C009B400B00AAF00B00B69
:10177000AA00D00CA500000EA000500F9B00C010C6
:1017800096005012910000148C00C0158700B0170D
:101790008200B0197D00D01B7800001E730040202D
:1017A0006E0090226900F024640040275F009029B9
:1017B0005A00E02B5500102E500020304B00103204
:1017C0004600E033410090353C0010373700703858
:1017D0003200A0392D00B03A2800A03B2300603C25
:1017E0001E00103D1900903D1400103E0F00703E89
:1017F0000A00C03E0500003F0000403FFBFF803F65
:10180000F6FFC03FF1FF4361703A007D007D7D2C03
:10181000776F726B3A7B6D696E3A7B783A007D2CFC
:101820006D61783A7B783A002C7A3A002C793A004C
:10183000617265613A7B66756C6C3A7B6D696E3A74
:101840007B783A004348414D4245525F54454D50E4
:101850004552415455524500424142595354455016
:1018600050494E470041524353004D4F54494F4E4B
:101870005F4D4F44455300544845524D414C5F50D5
:10188000524F54454354494F4E004C4F4E475F46CC
:10189000494C454E414D45004155544F5245504FDE
:1018A00052545F53445F535441545553005344437F
:1018B0004152440050524F4D50545F535550504F79
:1018C000525400454D455247454E43595F50415291
:1018D00053455200434153455F4C494748545F428A
:1018E00052494748544E45535300544F47474C457F
:1018F0005F4C494748545300534F46545741524553
:101900005F504F574552004255494C445F50455235
:1019100043454E54004C4556454C494E475F444163
:101920005441005A5F50524F42450052554E4F5558
:1019300054004155544F4C4556454C005052494E69
:10194000545F4A4F420050524F4752455353004153
:1019500055544F5245504F52545F54454D500056C8
:101960004F4C554D455452494300454550524F4DFB
:101970000042494E4152595F46494C455F545241DD
:101980004E534645520053455249414C5F584F4EC5
:101990005F584F4646004649524D574152455F4EAB
:1019A000414D453A4D61726C696E20322E302E37B2
:1019B0002E322028446563202034203230323020FB
:1019C00032333A32323A33372920534F5552434556
:1019D0005F434F44455F55524C3A68747470733A94
:1019E0002F2F6769746875622E636F6D2F4D61725A
:1019F0006C696E4669726D776172652F4D61726CAC
:101A0000696E2050524F544F434F4C5F56455253CE
:101A1000494F4E3A312E30204D414348494E455FA3
:101A2000545950453A417274696C6C65727920471B
:101A3000656E6975732045585452554445525F434D
:101A40004F554E543A3120555549443A6561373720
:101A5000323763342D643963382D343035302D629C
:101A60003431352D6633323931636366393363631C
:101A70000A00656E7175657565696E672022006F75
:101A80006B00526573656E643A2000236465666975
:101A90006E652044454641554C545F004B64200020
:101AA0004B6920004B702000504944204175746FF1
:101AB00074756E652066696E69736865642120506F
:101AC000757420746865206C617374204B702C20D1
:101AD0004B6920616E64204B6420636F6E73746188
:101AE0006E74732066726F6D2062656C6F7720690B
:101AF0006E746F20436F6E66696775726174696F8B
:101B00006E2E680A00504944204175746F74756EDA
:101B100065206661696C6564212074696D656F7507
:101B2000740A000A20436C6173736963205049444E
:101B3000200A00204B643A2000204B693A20002004
:101B40004B703A20000A204E6F206F7665727368E2
:101B50006F6F740A002054753A2000204B753A20AC
:101B600000206D61783A2000206D696E3A200020D7
:101B7000643A200020626961733A20005049442091
:101B80004175746F74756E652073746172740A00A8
:101B9000504944204175746F74756E6520666169A3
:101BA0006C6564212054656D706572617475726531
:101BB00020746F6F20686967680A005049442041AB
:101BC00075746F74756E65206661696C656421203B
:101BD000426164206578747275646572206E756DFB
:101BE0006265720A0020746F6F206C6F6E672065EB
:101BF0007874727573696F6E2070726576656E7435
:101C000065640A0020636F6C642065787472757374
:101C1000696F6E2070726576656E7465640A00DBAC
:101C20000FC93F45BCDA3F8FB30240FCF027405656
:101C3000946140FE4B9B4084A5D840E0231841347A
:101C40006A5641E859974164DBD5416E271742B483
:101C5000B75542CE1A9742C8AED542B5885A43D43A
:101C60000684BFA65FA7BF7443E0BF10B11AC01CB3
:101C70002C58C0E8F697C0B849D6C04E4E17C124BC
:101C8000D355C1802497C1A0B5D5C1121A17C2443B
:101C9000AE55C2781797C26CACD5C267885AC320BC
:101CA000573A004D3130362050007C3C3E5E2B3D93
:101CB0003F2F5B5D3B2C2A225C002053697A653AFA
:101CC000200043616E6E6F74206F70656E207375B7
:101CD00062646972200053442063617264206F6BF8
:101CE0000A006F70656E526F6F74206661696C6573
:101CF000640A00766F6C756D652E696E6974206676
:101D000061696C65640A004E6F2053442063617200
:101D1000640A006F70656E206661696C65642C20D2
:101D200046696C653A200046696C652073656C6590
:101D3000637465640A0046696C65206F70656E6542
:101D4000643A2000454E4420535542524F55544961
:101D50004E450A002220706F730022207061726568
:101D60006E743A2200535542524F5554494E452005
:101D700043414C4C207461726765743A220053757C
:101D80006263616C6C204F766572666C6F7700459C
:101D900078636565646564206D61782053554252AF
:101DA0004F5554494E452064657074683A310A00B5
:101DB00057726974696E6720746F2066696C653A42
:101DC0002000446F6E652E0A0050756C73696E6753
:101DD00020202000556E746F756368656420005381
:101DE0004552564F206E6F74207365742075702EA7
:101DF0000A005761746368696E672070696E730AC0
:101E000000656E6473746F70206D6F6E69746F72AD
:101E10002000204D3932205800496E7365727420BD
:101E200066696C616D656E7420616E642073656EA9
:101E300064204D3130380A0053656E64204D3130D6
:101E40003820746F2068656174206E6F7A7A6C65D3
:101E50000A0020496E76616C696420657874727539
:101E60006465722000486F6D696E67204661696C19
:101E70006564006F70656E0054524947474552458E
:101E800044007A5F6D696E00795F6D696E00785FFE
:101E90006D696E005265706F7274696E6720656E51
:101EA0006473746F70207374617475730A00576182
:101EB000726E696E673A20486F6D696E6720427571
:101EC0006D702044697669736F72203C20310A007E
:101ED0000000484200004842000080400202040026
:101EE000008040000080400000004000005C430093
:101EF00000614300007A43FFFFFF00000001000083
:101F000000010000800055555500000040003333AB
:101F10003300AAAA2A004992240000002000C771B9
:101F20001C0099991900D1451700555515003BB172
:101F300013002449120011111100000010000F0FAE
:101F40000F00E3380E0043790D00CCCC0C00C330F9
:101F50000C00E8A20B0064210B00AAAA0A00703D45
:101F60000A009DD80900427B090092240900DCD3B5
:101F70000800888808001042080000000800F0C12E
:101F800007008787070075500700711C07003EEBAC
:101F90000600A1BC06006990060066660600703E59
:101FA00006006118060017F4050074D105005BB047
:101FB0000500B2900500627205005555050078399C
:101FC0000500B81E0500050505004EEC040087D489
:101FD0000400A1BD040090A7040049920400C17D43
:101FE0000400EE690400C7560400444404005C3257
:101FF00004000821040041100400000004003FF028
:102000000300F8E0030026D20300C3C30300CCB5ED
:1020100003003AA803000A9B0300388E0300C08126
:1020200003009F750300D0690300505E03001D5339
:10203000030034480300913D0300333303001629A5
:102040000300381F030097150300300C030003033F
:1020500003000BFA020049F10200BAE802005CE05A
:1020600002002DD802002DD0020059C80200B0C0D5
:10207000020031B90200DAB10200AAAA0200A0A34C
:102080000200BC9C0200FA9502005C8F0200DF880F
:10209000020082820200457C02002776020027703F
:1020A0000200436A02007C640200D05E02003F59D5
:1020B0000200C8530200000000000000A0C00000A1
:1020C0000000FFFDFCFAF8F6F4F2F0EEECEAE9E7C6
:1020D000E5E3E1E0DEDCDAD9D7D5D4D2D0CFCDCB81
:1020E000CAC8C7C5C3C2C0BFBDBCBAB9B7B6B4B30E
:1020F000B2B0AFADACAAA9A8A6A5A4A2A1A09E9D6E
:102100009C9A99989795949392908F8E8D8B8A89AB
:1021100088878684838281807F7E7D7B7A797877C9
:10212000767574737271706F6E6D6C6B6A696867C7
:10213000666564636261605F5E5D5C5B5A595858B6
:102140005756555453525150504F4E4D4C4B4A4A8E
:102150004948474646454443424241403F3E3E3D52
:102160003C3B3B3A39383837363535343332323107
:1021700030302F2E2E2D2C2B2B2A292928272726AD
:10218000252524232322212120201F1E1E1D1C1C47
:102190001B1B1A19191818171616151514131312D4
:1021A000121111100F0F0E0E0D0D0C0C0B0A0A0957
:1021B00009080807070606050504040303020201CF
:1021C0000000220A00556E6B6E6F776E20636F6D94
:1021D0006D616E643A20220020453A00205A3A0090
:1021E00020593A0020520048617264636F6465644C
:1021F0002044656661756C742053657474696E67FC
:1022000073204C6F616465640A003B200020204D00
:10221000363033200020550046696C616D656E7460
:10222000206C6F61642F756E6C6F6164206C656EDD
:10223000677468733A0020204D33303420500020FA
:10224000490020204D333031205000504944207344
:10225000657474696E67733A0020204D3230362001
:102260005800486F6D65206F66667365743A00208C
:102270004A0020204D323035204200416476616EA4
:102280006365643A20423C6D696E5F7365676D6596
:102290006E745F74696D655F75733E20533C6D6944
:1022A0006E5F66656564726174653E20543C6D695D
:1022B0006E5F74726176656C5F6665656472617489
:1022C000653E204A3C6A756E635F6465763E002019
:1022D000540020204D323034205000416363656C3F
:1022E00065726174696F6E2028756E6974732F73DF
:1022F00032293A20503C7072696E745F6163636585
:102300006C3E20523C726574726163745F616363FA
:10231000656C3E20543C74726176656C5F616363EA
:10232000656C3E0020204D3230312058004D6178E0
:10233000696D756D20416363656C65726174696F69
:102340006E2028756E6974732F7332293A00204508
:1023500000205A0020590020204D323033205800F0
:102360004D6178696D756D2066656564726174652F
:10237000732028756E6974732F73293A005374653E
:1023800070732070657220756E69743A0020440085
:1023900020204D3230302053002044697361626C3C
:1023A00065640A0046696C616D656E7420736574BE
:1023B00074696E67733A0020286D6D2900202047EC
:1023C0003231202020203B20556E69747320696EC5
:1023D000206D6D00000096430000964300002042EF
:1023E00000002042F43DA042F43DA04296E3C743E2
:1023F0000080DE43D0070000D0070000640000002A
:102400001027000000002100240027002A002D00D2
:102410003000330001010000040107010A0100003F
:102420002200250028002B002E003100340002017C
:102430000000050108010B01000020002300260018
:1024400029002C002F0032000001000003010601CA
:10245000090105050505070508080808020202022A
:102460000A0A080804040404010101010101010130
:102470000303030303030303040707070C0C0C0CFB
:102480000C0C0C0C020202020606060606060606E4
:102490000B0B0B0B0B0B0B0B010210202008081071
:1024A00020401020408002010201080402010102C4
:1024B000040810204080804020100804020180049D
:1024C00002018040201008040201080402010102F8
:1024D0000408102040800102040810204080000001
:1024E0000A0B02090C0D0E0807030401000000008E
:1024F00000000000000000000000000000000000DC
:102500000000000000000000000012111000000098
:1025100000000000000000000000000000000000BB
:1025200000000000486F6D6520257325732573201A
:1025300046697273740020436F756E7420583A00B8
:1025400042656400453100626564002C2073797334
:1025500074656D2073746F707065642120486561C7
:102560007465725F49443A200000FBAA16A9112441
:102570001FBECFEFD1E2DEBFCDBF00E00CBF12E047
:10258000A0E0B2E0E0EDFFE601E00BBF02C0079083
:102590000D92AE3CB107D9F722E1AEECB2E001C03A
:1025A0001D92AB30B207E1F712E1C6EBD2E100E0D9
:1025B00006C021970109802FFE010E9433B4C53B5C
:1025C000D10780E00807A9F70E946FA20C94D6B744
:1025D0000C9400002F923F924F925F926F927F92E5
:1025E0008F929F92AF92BF92CF92DF92EF92FF9223
:1025F0000F931F93CF93DF93CDB7DEB7C955D109A2
:102600000FB6F894DEBF0FBECDBF6A968FAF6A9744
:102610002091D80269962FAF699781E08093D80204
:10262000809119068D3409F48EC2843511F40C940E
:102630001C21873411F00C94412120901706309012
:10264000180635E12316310411F40C94432194F457
:1026500054E02516310444F482E0281631040CF0CD
:1026600008C137FE35C06BC294E02916310409F465
:102670008CC165C2AAE52A16310409F4EBC15CF4E9
:10268000EBE12E16310409F4B6C1FCE12F1631043A
:1026900009F4D0C154C22BE52216310409F4DEC17D
:1026A0003CE52316310409F04AC27AE6272E72E08F
:1026B000372EE5E4EE2EEDE0FE2E2EE432E03DA3D3
:1026C0002CA3F6E7CF2EFDE0DF2E00E010E006C2DF
:1026D0008091B405813011F00C9443210E94048450
:1026E00082E59DE00E943A8E80913E0C83FD85C07C
:1026F00020915A0230915B0240915C0250915D0240
:1027000060915E0D70915F0D8091600D9091610DF3
:102710000E94BDAF882309F470C08091CB0681115F
:102720001BC060918C0D70918D0D80918E0D9091DC
:102730008F0D0E94BAB520912402309125022150BC
:1027400031096217730744F40E948E2B84E09CE1E8
:102750000E94682B11E001C010E020915A023091D4
:102760005B0240915C0250915D0260915E0D709140
:102770005F0D8091600D9091610D0E944DB46B01D1
:102780007C0120E030E0A9010E94AEB687FF04C0C2
:10279000F7FAF094F7F8F09420912002309121029A
:1027A0004091220250912302C701B6010E9423B03A
:1027B00020E030E048E453E40E94AEB618163CF442
:1027C0000E948E2B85EE9BE10E94682B02C0112394
:1027D000A1F080915E0D90915F0DA091600DB09180
:1027E000610D80935A0290935B02A0935C02B093B8
:1027F0005D028EE59DE00E9476922AE037ED43E28D
:102800005CE360910002709101028091020290915C
:1028100003020E9423B06B017C0160910902709158
:102820000A02072E000C880B990B0E94C4AF9B0173
:10283000AC01C701B6010E9423B069837A838B8300
:102840009C838E010F5F1F4F2EE53DE04AE55DE062
:1028500066E57DE082E59DE00E94BE9E80E1E2E5C6
:10286000FDE0AEE4B2E001900D928A95E1F70C94A0
:1028700043218091B405813011F00C9443210E94D2
:10288000048482E50E94AF43882309F44CC00E946F
:102890002E436B017C0120E030E0A9010E94BDAF16
:1028A000882311F40C940C2280914E0290914F02D7
:1028B000A0915002B09151028CA39DA3AEA3BFA3DF
:1028C000209152023091530240915402509155028E
:1028D00028A739A74AA75BA78090520D9090530D67
:1028E000A090540DB090550D4090560D5090570D3E
:1028F0006090580D7090590DA5019401BC01CD0157
:102900000E94BDAF81110C945121A301920168A5D1
:1029100079A58AA59BA50E94BDAF882311F40C94CC
:102920000C220C94512189E40E94AF43882329F0A2
:102930000E942E436B017C0103C0C12CD12C760177
:102940008AE40E94AF43882311F40C9413220E945E
:102950002E436CA77DA78EA79FA720E030E0A9019A
:10296000C701B6010E94BDAF81110C94202220E066
:1029700030E0A9016CA57DA58EA59FA50E94BDAFE5
:1029800081110C9420220C940C2280E50E94AF430C
:10299000882329F00E94EA426B017C0103C0C12C0C
:1029A000D12C760183E50E94AF43882361F00E9419
:1029B0002E4320E030E04AE754E40E9423B00E9416
:1029C000C1B56B017C010E9465920E9428A1C60ED0
:1029D000D71EE81EF91E0E9428A1DC01CB018C192C
:1029E0009D09AE09BF09B7FD02C00C94432180E0E8
:1029F0000E94702DF0CF0E94189F81110C944321EA
:102A00008CE0EEE5F2E0DE01119601900D928A95E0
:102A1000E1F780E50E94AF43882321F00E94FA424B
:102A2000862F01C080E0BE016F5F7F4F0E94125968
:102A30000C9443218091510D8770873011F00C94D4
:102A4000D02560E08FE40E94CF4381110C94432194
:102A50000C94D0251092D7020C9443218FE08093E0
:102A6000D7020C9443210E942E432B013C011330CA
:102A700049F0F60120813181428153810E944DB499
:102A80002B013C01ACA1BDA12D913D914D915C91DB
:102A9000C301B2010E944DB44B015C012DEB37E341
:102AA00046E855EB0E94AEB687FD20C02DEB37E31C
:102AB00046E855E3C501B4010E94BDAF1816B4F055
:102AC0001F5FB4E0EB0EF11CECA1FDA13496FDA359
:102AD000ECA3F4E0CF0ED11C143039F1D1018D916B
:102AE0001D010E94AF43882359F3BDCF133051F429
:102AF00040925A0250925B0260925C0270925D02B8
:102B000001E0DECFA5019401F7016081718182812E
:102B100093810E944EB4D7016D937D938D939C93C6
:102B20001397812F0E94078ECBCF002321F08AE5D7
:102B300092E00E9476920E94878F0C9443210E941B
:102B4000089A0C9443210091170610911806023739
:102B5000110509F445C60CF0C2C00B34110509F487
:102B6000F7C30CF060C00831110509F428C264F500
:102B70000231110509F451C574F417FF02C00C9419
:102B80001921023011050CF482C10131110509F43B
:102B9000B3C10C9419210531110509F4F2C134F4C3
:102BA0000431110509F4BCC10C9419210631110539
:102BB00009F4EBC10731110511F00C941921E091D2
:102BC0001506F0911606EFC10D31110509F46FC21B
:102BD000BCF40A31110509F409C20CF4FCC10B3133
:102BE000110509F411C20C31110511F00C941921D1
:102BF00080911506909116060E94A5810C944321A0
:102C00000F31110509F4FEC20CF458C2003211054F
:102C100009F4B5C20B32110511F00C9419210E9470
:102C2000B6880C9443210836110509F49AC384F53B
:102C30000235110509F4E3C4DCF40D34110509F47F
:102C40008DC30CF488C30135110511F00C941921C2
:102C50000E94C9520E94CD900E944B940E94142B56
:102C600068EE73E080E090E00E946A440C94432197
:102C70000435110509F4D1C40CF4C8C40535110597
:102C800009F401C50C35110509F420C50C9419216E
:102C90000D36110509F480C38CF40A36110509F4C8
:102CA000B2C30CF49AC30B36110509F4D0C30C3629
:102CB000110511F40C9443210C9419210F361105C0
:102CC00009F4E0C30CF4CDC30037110511F40C94E2
:102CD00043210137110509F419C40C94192102325A
:102CE00021E0120709F4D9C70CF05EC00E3B1105B4
:102CF00009F44BC42CF50737110509F4B4C584F465
:102D00000537110511F40C9443210CF070C50337FD
:102D1000110511F00C9419210E94D1610C944321EA
:102D20000937110509F4AAC50CF4A0C50C38110522
:102D300009F40EC40B39110509F43BC40C94192194
:102D40000D3C110509F43BC6ACF4093C110509F42E
:102D5000E3C534F4083C110509F497C50C94192116
:102D60000B3C110509F4FCC50C3C110509F419C60E
:102D70000C941921033D110509F44CC65CF40E3C7A
:102D8000110511F00C94192112E2E12E14E0F12E3C
:102D900010E02FC60C3D110509F402C70D3D1105C9
:102DA00009F425C70C941921053F41E0140711F4DB
:102DB0000C944620ACF5003381E0180711F40C9414
:102DC000291F7CF40E32A1E01A0711F40C949C1F09
:102DD00014F00C94E01F0D32114009F4BBC70C94A1
:102DE00019210A39F1E01F0711F40C9443214CF426
:102DF0000039114011F00C9419210E9465920C9435
:102E000043210C3A41E0140711F40C94E31F043FF2
:102E1000114011F00C9419210E94814A0C94432115
:102E2000083582E0180711F40C947320B4F4073FBE
:102E3000A1E01A0711F40C944C2014F40C944920CE
:102E4000083FE1E01E0711F40C9455200C301240AD
:102E500011F40C9466200C941921003A23E0120717
:102E600009F4C2C13CF40B35124011F40C947A20E1
:102E70000C941921073E53E0150711F40C94F3202C
:102E8000093E134011F40C94FF200C94192180E5A5
:102E90000E94AF43882329F00E94EA426B017C0123
:102EA00003C0C12CD12C760183E50E94AF43882357
:102EB00061F00E942E4320E030E04AE754E40E9493
:102EC00023B00E94C1B56B017C010E946592809184
:102ED000150690911606892B41F00E948E2B809149
:102EE0001506909116060E944F2D40E0C701B601CD
:102EF0000E94E5310C9443218091110684FF02C0A9
:102F00000C9480278091130687FF02C00C948027C1
:102F100080911406837011F00C9480270C949D27E7
:102F20008091771183FF25C08EE993E00E94682B82
:102F30008091771183FF17C083E090E10E94A6750E
:102F40008BE1E3E0F0E1DE01119601900D928A95AC
:102F5000E1F760E070E0CE0101960E94F782CE01B9
:102F600001960E94AB758FE893E00E94682B0C9449
:102F700043210E948E2B8FEA93E00E94682B0C94D1
:102F800043210E94027D0C9443210E94E97C8091A0
:102F90007711877F8062809377110C944321803270
:102FA00009F41082319680818111F9CF60E080911F
:102FB0001506909116060E94EB810C9443210E9405
:102FC000062B882311F40C9443210E94FA7C0E9462
:102FD00094900C9443218091771182FF03C08B7FE2
:102FE000809377110E94B8900C94432180917711BF
:102FF00083FD02C00C94432183E50E94AF438111FD
:103000000C94A7270C94432183E40E9461438823F6
:1030100019F183EC93E00E94682B8091AD0F882317
:1030200091F0BE016F5F7F4F8AEA9FE00E946D744E
:103030008E010F5F1F4FD8018D918D01882339F0CC
:103040000E94562BF8CF89EB93E00E94682B8AE010
:103050000E94562B0C9443218091771182FF21C04E
:1030600082ED93E00E94682B60917311709174114E
:1030700080917511909176114AE00E940F2C8FE299
:103080000E94562B60916F11709170118091711197
:10309000909172114AE00E940F2C0E94492D0C94CD
:1030A000432184EE93E00E94682B0C94432180918D
:1030B00077118E7F809377110C9443218091771143
:1030C00083FD02C00C9443210E94EE9980917711F8
:1030D00083FD02C00C9443214091150650911606C1
:1030E000BE01645E7F4F80E00E941A988C010097B9
:1030F00011F40C9443216C8D7D8D19821C8222E089
:10310000AC01CE0101960E94DB79811102C0F12C45
:1031100014C0CE0101960E9488978823C1F361E014
:10312000CE0101960E945174009789F325EEFC01AF
:1031300020831C820E94217EF82ECE0101960E94DF
:10314000AB75B801FF2089F08DE094E00E94772BE9
:103150008AE00E94562B10927311109274111092F3
:103160007511109276110C94432185EF93E00E9423
:10317000772B80EF96E10E94682B0C94432180917D
:10318000771182FD0E9465928091771183FD02C0C4
:103190000C94432160E080E50E94CF43182F682FF4
:1031A00080911506909116060E94EB8183E50E949E
:1031B000AF43882381F00E94FA42AB01BC014093E7
:1031C00073115093741160937511709376118AEA9C
:1031D0009FE00E9447800E94FA7C11110C944321C9
:1031E0000E9494900C94432120911506309116066C
:1031F00090917711926090937711C9010E94A581F7
:103200000C9443210E9445907B018C0120E831E51C
:1032100041E050E00E94C4B3C9016DE671E00E9434
:1032200000B44B015C01C801B70120E13EE040E081
:1032300050E00E94C4B3CA01B90128E130E040E087
:1032400050E00E94C4B3762E672EC62ED72E6CE3B4
:10325000262E312C412C512CC801B701A20191011D
:103260000E94C4B3F62EE72ECA01B901A201910152
:103270000E94C4B3CB018E010F5F1F4F81149104D4
:1032800099F0EF92FF927F936F936F927F92BF922C
:10329000AF929F928F928BE194E09F938F931F93B5
:1032A0000F930E948EAF13C0A114B104B1F0EF923E
:1032B000FF927F936F936F927F92BF92AF928FE155
:1032C00094E09F938F931F930F930E948EAF0FB63E
:1032D000F894DEBF0FBECDBF30C0CD2879F0EF929D
:1032E000FF927F936F936F927F9283E294E09F931C
:1032F0008F931F930F930E948EAFE9CF892B69F0B4
:10330000EF92FF927F936F9387E294E09F938F9366
:103310001F930F930E948EAFDACFEF92FF928BE252
:1033200094E09F938F931F930F930E948EAF0F9003
:103330000F900F900F900F900F900E948E2BB8015E
:103340008FE294E00E94772B8AE00E94562B9BC765
:103350000E94949098C70E94B89095C70E94CD9003
:1033600092C780913E0C83FD8EC70E94B68487FD74
:103370008AC783E50E94AF43882359F00E942E43F9
:103380000E94BAB5CB010E94CC7A61E080E00E9435
:1033900059A20E94BCAA77C780913E0C83FD73C7D7
:1033A0000E94B684082F87FD6EC783E50E94AF4355
:1033B000F82E81110C94B82782E50E94AF43811149
:1033C0000C94B82710E00E94BCAA112309F45BC733
:1033D0006F2D802F0E94F27A56C70E94B684182F54
:1033E00087FD0AC08FE79AE10E94682B812F0E9417
:1033F000EE4F8AE00E94562B6996BFAD6997B09355
:10340000D8020C94AB2A80E50E946B9F81113BC7C8
:1034100081E40E946143882321F06091BA06062F5F
:1034200002C00FEF10E083E50E94AF43882349F00C
:103430000E94FA428B016F3F710519F010F00FEFF7
:1034400010E00093BA0680E00E94DC7A1CC780E599
:103450000E946B9F811117C71092BA060E94DC7AF6
:1034600012C78EE40E94AF43882309F40CC70E9460
:10347000FA4260939E0670939F068093A0069093F5
:10348000A10601C783E50E946143882329F083E5F3
:103490000E946B9F80933E0C0E948E2B80E494E0F0
:1034A0000E94682B80913E0C882369F150E4E52E40
:1034B00055E0F52E00E010E020E080913E0C90E019
:1034C000A0E0B0E0002E04C0B695A795979587952B
:1034D0000A94D2F780FF0EC0DD24D394D20E2223AB
:1034E00019F08CE20E94562BF701859194910E946D
:1034F000682B2D2D0F5F1F4FE2E0EE0EF11C053003
:103500001105D9F6A4CD8CE394E09FCD83E50E940C
:10351000AF43882371F00E940A43282F30E02D33F7
:1035200031051CF480930402AEC68CE38093040240
:10353000AAC60E948E2B4091040250E060E070E029
:1035400087E494E00E947C2C8AE00E94562B9BC664
:1035500080913E0C83FD97C683E50E94AF4388238C
:1035600009F491C60E942E430E94BAB56C387105C9
:103570000CF48B011093D7030093D6030E94915251
:1035800061E080E00E9459A27EC680913E0C83FDDE
:103590007AC683E50E94AF4325968FAF25978111A8
:1035A0000C94C62782E50E94AF4381110C94C62774
:1035B0006AC683E50E94AF43882309F464C60E946B
:1035C0000A43182F90E0CD970CF01CE31093D20221
:1035D0000E9428A16B017C01212F30E0A8EEB3E00E
:1035E0000E94F1B3C60ED71EE81EF91EC092CE028D
:1035F000D092CF02E092D002F092D10244C68091E4
:10360000D7028F7D80618093D7023DC68091D7021B
:103610008F7E80628093D70236C683E50E94AF43D7
:103620008823E9F00E9428A16093980C7093990C6C
:1036300080939A0C90939B0C0E942E4320E030E0E4
:103640004AE754E40E9423B00E94C1B5609305028A
:1036500070930602809307029093080214C680912B
:10366000110684FF02C00C9450298091130687FF35
:1036700002C00C94502980911406837011F00C94B0
:1036800050290C94842983E50E946143882309F41E
:10369000FAC50E9428A16093980C7093990C8093AE
:1036A0009A0C90939B0C0E942E4320E030E04AE756
:1036B00054E40E9423B00E94C1B56093D30270937A
:1036C000D4028093D5029093D602DDC50E94B684C1
:1036D00087FDD9C59091110694FD04C09091130601
:1036E00097FF0AC09AE6C92E92E0D92E2FE3E22E68
:1036F0002CE0F22E10E009C090911406937091F71F
:10370000682F81E00E947B88BEC5D6018D916D0136
:103710000E94AF43882309F459C0133009F04FC009
:103720000E942E434B015C0120E030E040EA51E46E
:103730000E94BDAF87FF3AC0A501940160915F0C64
:103740007091600C8091610C9091620C0E9448B560
:103750002B013C019B01AC0160916F0C7091700CCE
:103760008091710C9091720C0E9423B060936F0C49
:103770007093700C8093710C9093720C6091B206F0
:103780007091B3068091B4069091B5060E94C2AFC5
:10379000A30192010E9423B00E94C1B56093B206BA
:1037A0007093B3068093B4069093B50680925F0C35
:1037B0009092600CA092610CB092620C07C00E94C3
:1037C0002E43F701648B758B868B978B1F5FF4E01C
:1037D000EF0EF11C143009F098CF0E94AB9353C543
:1037E0000E94899989E490E10E94F1A14CC5009161
:1037F00015061091160694E0F12C40E0915031F13D
:10380000D8018C91282F2B7F213429F411962C91EB
:103810002133E1F408C08035C9F4F8018181805377
:103820008A3048F013C0813421F0853421F441E01E
:1038300002C0FF24F39498012E5F3F4F89012F5F50
:103840003F4FD8018C918032C9F3D8CF41110E94EB
:103850008E2BFF2021F08EE494E00E94682BC8019B
:103860000E944F2D10C50E940E900DC581E08093DF
:103870001F0480931E040E942C9005C510921F0403
:1038800010921E040E942C90FEC40E94B684182F31
:1038900087FDF9C40091D71184E40E94AF438823C7
:1038A00011F40C9488290E942E436B017C0120E0C6
:1038B00030E0A9010E94BDAF882341F1B4E01B02B2
:1038C000F0011124ED52FE4EC082D182E282F382D9
:1038D00020E030E0A9016091D3117091D411809162
:1038E000D5119091D6110E94BDAF81110CC080E01E
:1038F00090E0A0EEBFE38093D3119093D411A093F6
:10390000D511B093D61101E00C94882980E0809302
:10391000D7110E94A194B7C40E94B68487FDB3C496
:103920008AE6E82E82E0F82E0FE31CE0F701819191
:103930007F010E946143882361F00E942E430E9410
:10394000C1B5D8016D937D938D939C9313970E947D
:103950001E920C5F1F4FBCE00F341B0739F793C456
:103960000E94B68487FD8FC40AE6E02E02E0F02EA6
:103970000FE31CE0F70181917F010E9461438823DE
:1039800049F00E942E43D80194966D937D938D93B8
:103990009C9397970C5F1F4FBCE00F341B0751F7A8
:1039A00072C48091120687FF02C00C948E29809108
:1039B00013068E7011F00C948E290C94D6298091E8
:1039C000110681FF02C00C94FF298091120681FF2D
:1039D00002C00C94FF29809113068C7011F00C9496
:1039E000FF2951C41F5FF4E0EF0EF11C133009F4FE
:1039F000A2C888E5810F0E946143882399F30E9441
:103A00002E43F7016083718382839383812F0E9409
:103A1000078EE8CF4090760D5090770D6090780D2E
:103A20007090790D20913602309137024091380222
:103A300050913902C301B2010E944EB46CA37DA320
:103A40008EA39FA380907A0D90907B0DA0907C0D0B
:103A5000B0907D0D20913A0230913B0240913C02A2
:103A600050913D02C501B4010E944EB468A779A7E8
:103A70008AA79BA7C0907E0DD0907F0DE090800D0F
:103A8000F090810D20913E0230913F024091400222
:103A900050914102C701B6010E944EB46CA77DA7A8
:103AA0008EA79FA720914202309143024091440289
:103AB00050914502C301B2010E944EB42B013C015A
:103AC00020914602309147024091480250914902AC
:103AD000C501B4010E944EB44B015C0120914A0221
:103AE00030914B0240914C0250914D02C701B601FA
:103AF0000E944EB46B017C010E948E2B81E994E000
:103B00000E94682B83E50E946143882321F00E9474
:103B10001E438093340280913402882319F08EE58D
:103B200093E002C082E999E10E94682B89E894E061
:103B30000E94682B4CA15DA16EA17FA18AE293E255
:103B40000E94382D48A559A56AA57BA584E593E276
:103B50000E94382D4CA55DA56EA57FA581E593E259
:103B60000E94382D82ED9DE10E94682B81E894E04F
:103B70000E94682BB301A2018AE293E20E94382DD1
:103B8000B501A40184E593E20E94382DB701A60196
:103B900081E593E20E94382D8AE00E94562B73C380
:103BA00083E50E94AF43882331F00E94FA4270936C
:103BB0000A02609309028091110690911206A09169
:103BC0001306B0911406892B8A2B8B2B09F05BC34B
:103BD0006091090270910A0281EA94E00E94B62C79
:103BE00085E20E94562B8AE00E94562B4CC30E940D
:103BF000B684F82E87FD47C383E50E94AF430F2D9F
:103C00000F2C000C110B882369F10E94FA42F80175
:103C1000EE0FFF1FEA5DFD4F71836083000F111FE0
:103C2000000F111F9801205E3D4F7901072E000CF7
:103C3000880B990B0E94C4AF2AE037ED43E25CE3A6
:103C40000E9423B0F801E159F24F20813181428175
:103C500053810E9423B0D7016D937D938D939C93E4
:103C6000139711C30E948E2B85E40E94562B80E38C
:103C70008F0D0E94562B000F111FF801EA5DFD4FBA
:103C80006081718185EA94E00E94B62C85E20E94F1
:103C9000562B8AE00E94562BF6C28AE50E94AF435B
:103CA000811106C083E50E94AF43882309F443C015
:103CB0000E942E4320E030E040E050EC0E94BDAF77
:103CC00087FF02C00C94622A0E942E4320E030E05D
:103CD00040E050E40E94AEB6181614F40C945B2A2F
:103CE0000E942E436B017C0184E00E94278E81118B
:103CF00022C020915B0C30915C0C40915D0C509186
:103D00005E0CC701B6010E9423B00E94BAB5209193
:103D1000DF023091E002260F371F3093E00220933C
:103D2000DF022091CB033091CC03620F731F70939D
:103D3000CC036093CB038091130687FF02C00C94E1
:103D4000692A80911406837011F00C94692A0E94EC
:103D50008E2B99C285E40E946B9F811173C080E510
:103D60000E946143882351F00E942E436093930D7B
:103D70007093940D8093950D9093960D89E40E9415
:103D80006143882381F00E942E432CEA35EC47E200
:103D90005EE30E9423B06093970D7093980D80931B
:103DA000990D90939A0D84E40E946143882381F0D9
:103DB0000E942E432CEA35EC47E25EE30E9448B5B0
:103DC00060939B0D70939C0D80939D0D90939E0D21
:103DD0000E948E2B4091930D5091940D6091950D02
:103DE0007091960D85EB94E00E94382D2CEA35EC0D
:103DF00047E25EE36091970D7091980D8091990D67
:103E000090919A0D0E9448B5AB01BC0181EB94E002
:103E10000E94382D2CEA35EC47E25EE360919B0D61
:103E200070919C0D80919D0D90919E0D0E9423B0EC
:103E3000AB01BC018DEA94E00E94382D8AE00E941B
:103E4000562B21C20E948A2B89EB94E00E94682B9A
:103E50001AC280E50E946143882351F00E942E43DC
:103E60006093D9037093DA038093DB039093DC03B0
:103E700089E40E946143882381F00E942E432CEA4A
:103E800035EC47E25EE30E9423B06093DD0370935C
:103E9000DE038093DF039093E00384E40E94614398
:103EA000882381F00E942E432CEA35EC47E25EE342
:103EB0000E9448B56093E1037093E2038093E303AB
:103EC0009093E4030E948E2B4091D9035091DA0322
:103ED0006091DB037091DC0385EB94E00E94382D48
:103EE0002CEA35EC47E25EE36091DD037091DE037E
:103EF0008091DF039091E0030E9448B5AB01BC01C3
:103F000081EB94E00E94382D2CEA35EC47E25EE329
:103F10006091E1037091E2038091E3039091E403E7
:103F20000E9423B0AB01BC018DEA94E00E94382DC1
:103F30008AE00E94562BA7C183E50E946143182F97
:103F4000882371F00E942E430E94BAB57093250217
:103F50006093240221E0672B09F020E02093CB0638
:103F600080E50E946143882359F02091240230911A
:103F70002502232B11F00E941E438093CB0683C1A0
:103F8000111181C10E948E2B84EE94E00E94682B57
:103F90008091CB06882319F085E79EE102C08BEC67
:103FA00094E00E94682B609124027091250283EDB9
:103FB00094E00E94B62C8FEC94E00E94682B63C1C1
:103FC0000E94BE5960C10E94189F81115CC106EB1E
:103FD00010E2EEE4F2E0FDA3ECA39E012F5F3F4F61
:103FE000190147EFC42E4EE1D42E7901F8016591F5
:103FF000759185919491ACA1BDA18D909D90AD904E
:10400000BD90BDA3ACA3A50194010E944DB42B01AA
:104010003C01F701608371838283938320E030E069
:1040200040EA51EC0E94AEB687FD0AC020E030E0C5
:1040300040EA51E4C301B2010E94BDAF181634F446
:10404000F6018491181614F40C94712AD7018D90FE
:104050009D90AD90BD907D0120E030E040EA51ECB4
:10406000C501B4010E94AEB687FF02C00C947D2A40
:1040700020E030E040EA51E4C501B4010E94BDAF48
:10408000181614F00C94852A0C947D2A0E94179C13
:10409000FAC00E94029BF7C061E083E50E94CF4313
:1040A00091E089270E94259CEEC081E08093CA118F
:1040B0000E948E441092CA11882309F4E4C00E9421
:1040C0008E2B85E195E00E94682BDDC080917711F1
:1040D00082FF04C0806480937711D5C083FFD3C072
:1040E0000E94EE99D0C00E94B68487FDCCC00E9489
:1040F000DF84C9C00E94B684082F87FDC4C085E54F
:104100000E9461438823B1F1E02E002E000CFF08CD
:104110000E942E434B015C0120E030E0A9010E9487
:10412000AEB687FF04C0B7FAB094B7F8B094C70131
:1041300023E0880F991F2A95E1F79C0125533E4EF5
:104140007901D9018D929D92AD92BC92139720E096
:1041500030E048E453E4C501B4010E94AEB618163D
:104160004CF480E090E0A8E4B3E4F701808391830D
:10417000A283B3838CE40E946143882309F483C043
:10418000002E000C110B0E942E436B017C0120E0DD
:1041900030E0A9010E94AEB687FF04C0F7FAF094A0
:1041A000F7F8F09420E030E048E453E4C701B601AA
:1041B0000E94AEB6980193E0220F331F9A95E1F763
:1041C000F901E553FE4E18162CF0C482D582E68222
:1041D000F78259C080E090E0A8E4B3E4848395833B
:1041E000A683B78350C081E08093B40560E083E587
:1041F0000E94CF43811147C00E94BE5F44C00E940D
:1042000045906D3371058105910520F08CE395E0B3
:104210000E947F6388E395E00E947F6384E295E0DB
:104220000E94682B80E295E09093300480932F04E5
:104230002AC00E94089A27C00091170610911806FC
:104240000E9428A16093980C7093990C80939A0C0B
:1042500090939B0C0023B9F00E948E2B84E50E9462
:10426000562BB8017727072E000C880B990B0E945C
:104270009A2C80E20E94562B89EB94E00E94682BD6
:1042800002C00E94089A6A96FFAD6A97F11102C0B7
:104290000E94AE5F69962FAD69972093D8020C9467
:1042A000AB2A11E032E02316310409F010E020E0DF
:1042B00030E0A901C701B6010E94BDAF881F882761
:1042C000881F1813A4C080E090E0A0E8BFE38CA78B
:1042D0009DA7AEA7BFA72CA13DA14EA15FA1C5017F
:1042E000B4010E944DB420E030E040E05FE30E9462
:1042F00023B06CA37DA38EA39FA328A539A54AA5AF
:104300005BA5C301B2010E944DB420E030E040E063
:104310005FE30E9423B068A779A78AA79BA72CA177
:104320003DA14EA15FA1CA01B9010E9423B04B017A
:104330005C0128A539A54AA55BA5CA01B9010E945F
:1043400023B09B01AC01C501B4010E944EB40E9490
:10435000FCB64B015C019B01AC01C701B6010E9498
:104360004DB42B013C01A5019401C701B6010E9487
:104370004EB49B01AC01C301B2010E9423B06B019A
:104380007C0120E030E0A9010E94AEB687FD07C0A5
:10439000C701B6010E94FCB62B013C0103C0412CB1
:1043A000512C320168A579A58AA59BA59058A50135
:1043B00094010E9448B52CA53DA54EA55FA50E947D
:1043C00023B0A30192010E9423B02CA13DA14EA1D4
:1043D0005FA10E944EB46B017C01A50194016CA108
:1043E0007DA18EA19FA10E9448B52CA53DA54EA5FB
:1043F0005FA50E9423B0A30192010E9423B028A5CB
:1044000039A54AA55BA50E944EB40C94A91480E07E
:1044100090E0A0E8BFEB5BCF0E948A2B89E793E096
:104420000E94682B30CF20E030E0A901C701B6011F
:104430000E94BDAF882381F31CA61DA61EA61FA641
:10444000A701960150582CA33DA34EA35FA38CA5B2
:104450009DA5AEA5BFA5B05888A799A7AAA7BBA739
:10446000CA01B9010E9423B04B015C0128A539A5FE
:104470004AA55BA5CA01B9010E9423B09B01AC010A
:10448000C501B4010E944EB40E94FCB624966CAFE4
:104490007DAF8EAF9FAF249720914E0230914F0297
:1044A000409150025091510228AB39AB4AAB5BAB03
:1044B000A701960168A979A98AA99BA90E944EB46F
:1044C00028966CAF7DAF8EAF9FAF28978091520238
:1044D00090915302A0915402B09155028CAB9DABC8
:1044E000AEABBFAB2CA53DA54EA55FA5BC01CD01D4
:1044F0000E944EB42C966CAF7DAF8EAF9FAF2C97C1
:104500002091520D3091530D4091540D5091550D05
:1045100028AF39AF4AAF5BAF28962CAD3DAD4EAD5D
:104520005FAD289768AD79AD8AAD9BAD0E944DB463
:104530006B017C018091560D9091570DA091580D03
:10454000B091590D8CAF9DAFAEAFBFAF2C962CADD7
:104550003DAD4EAD5FAD2C97BC01CD010E944DB479
:104560004B015C01A70196016CA17DA18EA19FA1C9
:104570000E9423B02B013C01A501940168A579A5F7
:104580008AA59BA50E9423B09B01AC01C301B20187
:104590000E944EB42B013C01A50194016CA17DA1A8
:1045A0008EA19FA10E9423B04B015C01A70196013F
:1045B00068A579A58AA59BA50E9423B09B01AC01A3
:1045C000C501B4010E944DB4A30192010E94CDB473
:1045D0006B017C0120E030E0A9010E94BDAF87FFA4
:1045E0000AC02BED3FE049EC50E4C701B6010E9440
:1045F0004EB46B017C012BED3FE049EC50E4C70168
:10460000B6010E9448B520E030E040EC51E40E9441
:1046100023B00E942CB50E94C1B58B01672B11F409
:1046200001E010E092E02916310451F42BED3FE057
:1046300049EC50E4C701B6010E944DB46B017C0106
:1046400020E030E0A901C701B6010E94BDAF811191
:1046500022C028AD39AD4AAD5BAD68A979A98AA958
:104660009BA90E94BDAF811116C02CAD3DAD4EADD2
:104670005FAD6CA97DA98EA99FA90E94BDAF8111D4
:104680000AC008E110E0BBEDCB2EBFE0DB2EB9EC99
:10469000EB2EB0E4FB2E2091560230915702409150
:1046A0005802509159022CAB3DAB4EAB5FAB6091C1
:1046B0005A0D70915B0D80915C0D90915D0D0E9483
:1046C0004DB42B013C01A701960124966CAD7DAD44
:1046D0008EAD9FAD24970E9423B04B015C0120E07A
:1046E00030E0A901C301B2010E94BDAF8823C9F027
:1046F000A5019401C501B4010E9423B04B015C01E6
:10470000A3019201C301B2010E9423B09B01AC013D
:10471000C501B4010E944EB40E94FCB64B015C017D
:104720000DC020E030E0A901C501B4010E94AEB681
:1047300087FF04C0B7FAB094B7F8B0942FE632E11F
:1047400043E85AE3C501B4010E94BDAF87FD1DC215
:1047500080915E0D90915F0DA091600DB091610D03
:104760008CAF9DAFAEAFBFAF20915A0230915B02CC
:1047700040915C0250915D0228AF39AF4AAF5BAF08
:104780002AE037ED43E25CE36091000270910102A0
:1047900080910202909103020E9423B068AB79AB32
:1047A0008AAB9BAB6091090270910A02072E000C44
:1047B000880B990B0E94C4AF9B01AC0168A979A931
:1047C0008AA99BA90E9423B06C8F7D8F8E8F9F8FAB
:1047D000C501B4010E94F0B50E94C1B51B0160176C
:1047E000710708F41801B10180E090E00E94C2AFA7
:1047F0004B015C019B01AC01C701B6010E9448B5A9
:1048000068AB79AB8AAB9BABA5019401C301B20144
:104810000E9448B564966CAF7DAF8EAF9FAF649732
:1048200028AD39AD4AAD5BAD6CAD7DAD8EAD9FAD04
:104830000E944DB4A50194010E9448B568966CAFE2
:104840007DAF8EAF9FAF689728A939A94AA95BA908
:10485000CA01B9010E9423B06B017C019B01AC012C
:1048600068A979A98AA99BA90E9423B020E030E019
:1048700040EC50E40E9448B59B01AC0168A979A9BD
:104880008AA99BA90E944DB46CAF7DAF8EAF9FAF3C
:1048900020E030E040E05FE3C701B6010E9423B0B2
:1048A0009B01AC0160E070E080E89FE30E944DB4A2
:1048B00024966CAF7DAF8EAF9FAF24978CA99DA936
:1048C000AEA9BFA989879A87AB87BC8728AD39ADC8
:1048D0004AAD5BAD2D873E874F87588B0E9428A13C
:1048E0009B01AC0128533F4F4F4F5F4F60962CAF59
:1048F0003DAF4EAF5FAF60974CA05DA06EA07FA0B4
:1049000041E050E05DAB4CAB59E158AF8CA99DA99B
:104910008215930508F013C10E9448540E9428A1F3
:10492000DC01CB0160962CAD3DAD4EAD5FAD609727
:10493000821B930BA40BB50BB7FD11C00E9428A1DD
:104940009B01AC0128533F4F4F4F5F4F60962CAFF8
:104950003DAF4EAF5FAF609780E00E94702D38ADE5
:10496000315038AF332309F441C028A539A54AA5F1
:104970005BA524966CAD7DAD8EAD9FAD24970E9456
:1049800023B06B017C019201A3016CAD7DAD8EADB6
:104990009FAD0E9423B0A70196010E944EB47B01F7
:1049A0008C019201A30124966CAD7DAD8EAD9FADBF
:1049B00024970E9423B04B015C0128A539A54AA584
:1049C0005BA56CAD7DAD8EAD9FAD0E9423B09B010C
:1049D000AC01C501B4010E944DB42B013C01C701DB
:1049E000D80188A799A7AAA7BBA74FC04CA95DA9C2
:1049F000BA0180E090E00E94C2AF28A939A94AA973
:104A00005BA90E9423B04B015C010E9443B56B017E
:104A10007C01C501B4010E94EEB64B015C01A70107
:104A200096016CA17DA18EA19FA10E9423B02B01B4
:104A30003C012CA53DA54EA55FA5C501B4010E9472
:104A400023B0A30192010E944EB42B013C01A501A9
:104A500094016CA17DA18EA19FA10E9423B04B0166
:104A60005C012CA53DA54EA55FA5C701B6010E941E
:104A700023B09B01AC01C501B4010E944DB468A7ED
:104A800079A78AA79BA759E158AF9201A30128965D
:104A90006CAD7DAD8EAD9FAD28970E944EB46983FD
:104AA0007A838B839C8328A539A54AA55BA52C9680
:104AB0006CAD7DAD8EAD9FAD2C970E944EB46D83D5
:104AC0007E838F83988764962CAD3DAD4EAD5FADF0
:104AD000649769857A858B859C850E944EB4698729
:104AE0007A878B879C8768962CAD3DAD4EAD5FADC8
:104AF00068976D857E858F8598890E944EB46D87F5
:104B00007E878F87988BCE0101960E943A8E8E0108
:104B1000045E1F4F9E01235F3F4FAE01475F5F4F13
:104B2000BE016B5F7F4FCE0101960E94BE9E88231F
:104B300031F08CA99DA901969DAB8CABE7CE80E1AD
:104B4000E2E5FDE0DE01119601900D928A95E1F714
:104B5000CE0101960E943A8E8E01045E1F4F9E0187
:104B6000235F3F4FAE01475F5F4FBE016B5F7F4FDB
:104B7000CE0101960E94BE9E80E1FE013196AEE418
:104B8000B2E001900D928A95E1F70E9428A160930E
:104B9000980C7093990C80939A0C90939B0C73CB08
:104BA0000E946592109235020E9428A16093980C91
:104BB0007093990C80939A0C90939B0C80910002B7
:104BC00090910102A0910202B09103028093DB0256
:104BD0009093DC02A093DD02B093DE028091090283
:104BE00090910A029093DA028093D90284E690E0D1
:104BF00090930A028093090281E080931F040E942F
:104C00002C908AE50E946143082F88E50E94614349
:104C1000182F89E50E94614318136FC1011711F025
:104C2000312E6CC13324339411E091E09CA782E5CE
:104C30000E94AF43882369F00E942E436B017C01E0
:104C400020E030E0A9010E94BDAF882309F453C0E1
:104C500006C0C12CD12CA0EAEA2EA0E4FA2E111134
:104C600003C0332009F422C120E030E0A901C701CC
:104C7000B6010E944EB4962EA72EB82EC92ED09003
:104C80005602E0905702F0905802009159022D2DE3
:104C90003E2D4F2D502F0E94BDAF87FD03C0D92C54
:104CA00075010C2D80E090E0A0E8B0E48C8F9D8F22
:104CB000AE8FBF8F20E030E04AE753E46D2D7E2DAC
:104CC0008F2D902F0E94BDAF87FF02C08F2D04C093
:104CD000D12CE12C8AE703E44D2D5E2D682F702F37
:104CE00049835A836B837C83BE01645E7F4FCE0110
:104CF00001960E94FD8E112309F4D3C0332009F4DC
:104D0000CDC010924E0210924F021092500210929B
:104D100051021092520210925302109254021092B9
:104D200055020E94458FE7EFFEE1A491ACABEBEE9C
:104D3000FEE1C590D590E590F490EFEEFEE1859010
:104D40009590A590B490A7019601C501B4010E9469
:104D5000BDAF87FF05C0A7019601C501B40104C01E
:104D6000A5019401C701B6010E9448B52B013C0181
:104D7000E4EDFEE125913591459154912CA33DA39D
:104D80004EA35FA3E0EDFEE185919591A591B491CD
:104D900088A799A7AAA7BBA79C01AD016CA17DA17B
:104DA0008EA19FA10E94AEB6181634F428A499A52E
:104DB00098AB0AA51BA505C02CA0ADA1A8AB0EA160
:104DC0001FA1A3019201C301B2010E9423B020E000
:104DD00030E040E85FE30E944EB40E94FCB6222D12
:104DE00038A9A8010E9423B068A379A38AA39BA332
:104DF000E8EFFEE1149120E030E040EC5FE3C50114
:104E0000B4010E9423B04B015C01612F110F770B9D
:104E1000880B990B0E94C4AF9B01AC01C501B40182
:104E20000E9423B069837A838B839C8320E030E0E7
:104E300040EC5FE3C701B6010E9423B06B017C0127
:104E4000BCA96B2FBB0F770B880B990B0E94C4AFCB
:104E50009B01AC01C701B6010E9423B06C8F7D8F0E
:104E60008E8F9F8FAE01405E5F4FBE016F5F7F4FA1
:104E7000CE014C960E94DB8E0E94379010924E021B
:104E800010924F0210925002109251021092520250
:104E900010925302109254021092550280E00E9428
:104EA000EBA9332019F081E00E94EBA9ECA5EE23D9
:104EB00019F082E00E94EBA90E94458F80911E04A8
:104EC00080931F048091DB029091DC02A091DD02AF
:104ED000B091DE028093000290930102A09302023F
:104EE000B09303028091D9029091DA0290930A0262
:104EF000809309020E94878FC6C9382E0CA797CECF
:104F000088E50E94614381115F9889E50E946143B1
:104F100081118A988AE50E946143882331F080914B
:104F20000801817080930601479885E40E946143DF
:104F3000882309F4A8C91298A6C95F988A98809115
:104F40000801817080930601479812989CC90E94BD
:104F5000FA42AB01BC0140937311509374116093FA
:104F60007511709376118AEA9FE00E9447808BC981
:104F70000E942E430E94BAB5CB010E94CC7A61E018
:104F800081E00E9459A211E00C94E3190E942E4383
:104F90000E94BAB56C3871050CF07FC17093D703CD
:104FA0006093D6030E94915260E081E00E9459A272
:104FB00081E080931F0218A619A61AA61BA62C969C
:104FC0001CAE1DAE1EAE1FAE2C9721961FAE2197B4
:104FD000FCE32D96FFAF2D972CE161962FAF6197E3
:104FE00036E465963FAF6597C12CD12C30E8E32EAF
:104FF0004FEBF42E1CA241E04CAF812C912C5401BC
:105000006091D6037091D703072E000C880B990B83
:105010000E94C4AF162F072F382E292E9601A70104
:105020000E94BDAF882331F12091D2033091D30388
:105030004091D4035091D50325968FAD2597612FCC
:10504000702F811109C0832D922D0E94BDAF881F42
:105050008827881F8CA314C0832D922D0E94BDAF7A
:1050600087FF0DC080911F02882309F40CC910929C
:105070001F0209C91C2D0D2D3E2C2F2C01C01CA276
:105080000E9428A16B017C01DC01CB012C962CAD88
:105090003DAD4EAD5FAD2C97821B930BA40BB50BB2
:1050A000B7FD35C0D701C60188519C4FAF4FBF4FE8
:1050B0002C968CAF9DAFAEAFBFAF2C9780E00E9417
:1050C000EE4F8FE99CE10E94682B81149104A104AA
:1050D000B104B9F0D501C401805F984DAF4FBF4F07
:1050E000BC01CD016C197D098E099F0928EE33E0C2
:1050F00040E050E00E94C4B3CA01B9010E949A2C5A
:1051000003C08FE30E94562B8AE00E94562B80E05A
:105110000E94702D0E9428A16093980C7093990CA6
:1051200080939A0C90939B0C9091D2039CA7A09192
:10513000D303A8ABB091D403BCABE091D503E8AFE7
:10514000292F3A2F4B2F5E2F612F702F832D922DF9
:105150000E944DB42B013C0120E030E0A9010E94E7
:10516000AEB687FF04C077FA709477F87094811414
:105170009104A104B104E1F420E030E040E85FE3F1
:10518000C301B2010E94BDAF87FF1EC0FCADFF236B
:1051900029F085E09DE0A0E0B0E003C080E090E071
:1051A000DC0146015701880E991EAA1EBB1E0CC0C9
:1051B00020E030E040E450E4C301B2010E94AEB60A
:1051C000181614F4460157012CA1222309F448C0F3
:1051D00088A599A5AAA5BBA5892B8A2B8B2B61F045
:1051E000D701C60128A539A54AA55BA5821B930B4B
:1051F000A40BB50BB7FD34C02CA538A94CA958ADEC
:1052000021966FAD21972D967FAD2D9761968FAD2D
:10521000619765969FAD65970E944DB420E030E0A0
:1052200040E85FE30E94BDAF87FD1CCFD701C601F8
:10523000805A9541AF4FBF4F88A799A7AAA7BBA790
:105240009CA521969FAF2197A8A92D96AFAF2D972A
:10525000BCA96196BFAF6197E8AD6596EFAF659762
:1052600080911F02882309F4FDCE81149104A104CA
:10527000B10431F41CAEC12ED02EE32CF22CC0CEE2
:10528000F0E1CF1AF7E2DF0AE108F108C818D908FF
:10529000EA08FB08F7FCEECFE5CE6CE870E07ECEC6
:1052A0000E94659288E50E946143882331F05F9AED
:1052B000809121048E7F8093210489E50E946143BF
:1052C000882331F08A9A809121048D7F8093210474
:1052D0008AE50E946143882361F0809108018095EE
:1052E000817080930601479A809121048B7F80937F
:1052F000210485E40E946143882311F40C94432126
:105300000E94C52A0C9443210E944B940C94432183
:10531000602F83E50E94CF430C94871C83E50E9495
:10532000AF43882391F00E942E436093730C7093D7
:10533000740C8093750C9093760C60937B0C709337
:105340007C0C80937D0C90937E0C80E50E94AF4393
:10535000882351F00E942E436093730C7093740C59
:105360008093750C9093760C82E50E94AF4388235E
:1053700051F00E942E436093770C7093780C8093C9
:10538000790C90937A0C84E50E94AF43882311F442
:105390000C9443210E942E4360937B0C70937C0CF1
:1053A00080937D0C90937E0C0C9443214091730C60
:1053B0005091740C6091750C7091760C82E594E0BC
:1053C0000E94382D4091770C5091780C6091790CA7
:1053D00070917A0C84EE91E20E94382D40917B0C02
:1053E00050917C0C60917D0C70917E0C8FEC92E260
:1053F0000E94382D8AE00E94562B0C94432182E4AF
:105400000E946143882351F00E94EA4260934F0C4E
:105410007093500C8093510C9093520C83E50E9432
:105420006143882351F00E942E4360937F0C709358
:10543000800C8093810C9093820C84E50E946143E0
:10544000882351F00E942E436093830C7093840C48
:105450008093850C9093860C8AE40E946143882394
:1054600011F40C9443210E942E436B017C012AE02D
:1054700037ED43E25CE30E94AEB687FD14C02AE933
:1054800039E949E95EE3C701B6010E94BDAF1816CC
:1054900054F0C092A206D092A306E092A406F09225
:1054A000A5060C9443210E948A2B82E694E00E9478
:1054B000682B0C944321C12CD12CE12C60E4F62EF6
:1054C0000C94741EC12CD12CE12C50ECF52E0C94B4
:1054D000741E82E50E94614381110C94A71E0C94F6
:1054E0004321B7FAB094B7F8B094D7018D929D924A
:1054F000AD92BC9213970C9426200E948A2B87EFC2
:1055000094E00E94682B0C9443210C5F1F4FBFEF67
:10551000CB1ADB0AE0E2023C1E0711F00C94F61FE6
:1055200032E2E32E34E0F32E10E0F101819191910B
:10553000A191B1911F01F70181939193A193B1932F
:105540007F01812F0E94078E1F5F133071F70E9429
:10555000878F0C944321C75ADF4F0FB6F894DEBFF4
:105560000FBECDBFDF91CF911F910F91FF90EF90B4
:10557000DF90CF90BF90AF909F908F907F906F9073
:105580005F904F903F902F900895129A08955F9AE0
:10559000809121048E7F809321048A9A8091210436
:1055A0008D7F809321048091080180958170809384
:1055B0000601479A809121048B7F809321040C94EB
:1055C000C52AFF920F931F93CF93DF931F92CDB7FE
:1055D000DEB7F82E06E117E041E050E0B801CE0159
:1055E00001960E9430AF89818F1102C081E007C00F
:1055F0000F5F1F4F87E00133180771F780E00F90AE
:10560000DF91CF911F910F91FF90089590917711A5
:1056100093FB882780F993FF06C081E09091AD0F3E
:10562000911101C080E008951092BA0680E00C94B8
:10563000DC7A8F929F92AF92BF92CF92DF92EF92DD
:10564000FF920F93CF93DF931F92CDB7DEB75C012C
:105650006B017A014901F501808191810E949EB31D
:105660008983002311F0F6018083BE016F5F7F4FB5
:10567000C4010E947199F501808191810196918305
:105680008083FFEFCF1ADF0A81E0E81AF10819F7EB
:1056900080E00F90DF91CF910F91FF90EF90DF901E
:1056A000CF90BF90AF909F908F9008959091C00041
:1056B00095FFFCCF8093C6000895CF93C82FCC23CD
:1056C00029F080E20E94562BC150F9CFCF91089566
:1056D000CF93DF93FC018491EF012196882321F081
:1056E0000E94562BFE01F7CFDF91CF9108950F93C3
:1056F0001F93CF93DF938B010E94682BE801899160
:10570000882319F00E94562BFACFDF91CF911F9179
:105710000F9108958FE097E00C94682B89E097E053
:105720000C94682BC42F0E94C9520E948A2B89EEC8
:1057300096E00E94682B89EE93E030E6019729F00D
:10574000232F2A950000E9F7F9CFF89489EE93E02A
:1057500038EE019729F0232F2A950000E9F7F9CFB9
:105760000E94C952CC2319F00E94C72A02C00E948D
:10577000C52AA895FECF7F928F929F92AF92BF923B
:10578000CF92DF92EF92FF920F931F93CF93DF930D
:105790001F92CDB7DEB77C0159018B016B01C40E9E
:1057A000D51E0C151D0559F1F70180809180F80177
:1057B00071908F017982C4010E949EB3781691F096
:1057C000672DC4010E94A6B3C4010E949EB39981B3
:1057D000891741F00E948E2B8AE495E00E94682B85
:1057E00081E00EC0BE016F5F7F4FC5010E947199BD
:1057F000F70180819181019691838083D2CF80E0EF
:105800000F90DF91CF911F910F91FF90EF90DF905C
:10581000CF90BF90AF909F908F907F9008958F9280
:105820009F92AF92BF92EF92FF920F931F93CF93ED
:10583000DF93CDB7DEB7A0970FB6F894DEBF0FBEEB
:10584000CDBF611571058105910591F100E0842EB0
:10585000912CA12CB12C102FEE24E394F12CEC0E02
:10586000FD1EE00EF11C07FDFA94A50194010E94B3
:10587000C4B3F7016083B901CA010F5F61157105F7
:105880008105910541F71F3F31F1E1E0F0E0EC0FB8
:10589000FD1FE10FF11D17FDFA9580818A3010F090
:1058A00097E301C090E3890F0E94562B1150EBCF74
:1058B00080E3A0960FB6F894DEBF0FBECDBFDF9198
:1058C000CF911F910F91FF90EF90BF90AF909F905D
:1058D0008F900C94562BA0960FB6F894DEBF0FBE97
:1058E000CDBFDF91CF911F910F91FF90EF90BF90AF
:1058F000AF909F908F900895CF92DF92EF92FF929A
:105900006A017B010E94682B4AE0C701B601FF9043
:10591000EF90DF90CF900C940F2CCF93DF93EB019F
:105920000E94682BBE0180E090E04AE0DF91CF91B9
:105930000C940F2CCF92DF92EF92FF926B017C01BF
:1059400097FF0BC08DE20E94562BF094E094D09408
:10595000C094C11CD11CE11CF11C4AE0C701B60176
:10596000FF90EF90DF90CF900C940F2CCF93DF93AC
:10597000EB010E94682BBE01DD0F880B990BDF91B4
:10598000CF910C949A2C8F929F92AF92BF92CF920C
:10599000DF92EF92FF92CF936B017C01B42E20E057
:1059A00030E0A9010E94BDAF87FF07C08DE20E94D1
:1059B000562BF7FAF094F7F8F094C0E060E070E04E
:1059C00080E09FE3CB1541F02DEC3CEC4CEC5DE32B
:1059D0000E9423B0CF5FF6CF9B01AC01C701B60197
:1059E0000E944EB46B017C010E94C1B54B015C0169
:1059F0004AE00E940F2CCC2389F1C501B4010E941A
:105A0000C2AF9B01AC01C701B6010E944DB46B014E
:105A10007C018EE20E94562B20E030E040E251E40F
:105A2000C701B6010E9423B04B015C010E94BAB5C8
:105A30006B01770FEE08FF08C701B6010E949A2C90
:105A4000C701B6010E94C4AF9B01AC01C501B401FE
:105A50000E944DB46B017C01C150F1F6CF91FF90D3
:105A6000EF90DF90CF90BF90AF909F908F90089570
:105A7000CF92DF92EF92FF926A017B010E94682B26
:105A800044E0C701B601FF90EF90DF90CF900C94F7
:105A9000C32C8DE00E94562B8AE00C94562BCF939A
:105AA000DF93EC018991882319F00E94562BFACFDD
:105AB000DF91CF910C94492D80911A0690911B068D
:105AC000981759F0E92FF0E0E65EF94F82819F5F69
:105AD0009F7790931B0690E008958FEF9FEF0895B6
